{
  "_format": "hh-sol-artifact-1",
  "contractName": "Uniswap",
  "sourceName": "contracts/Uniswap.sol",
  "abi": [
    {
      "inputs": [],
      "stateMutability": "nonpayable",
      "type": "constructor"
    },
    {
      "inputs": [
        {
          "internalType": "string",
          "name": "tokenName",
          "type": "string"
        },
        {
          "internalType": "address",
          "name": "_address",
          "type": "address"
        }
      ],
      "name": "getBalance",
      "outputs": [
        {
          "internalType": "uint256",
          "name": "",
          "type": "uint256"
        }
      ],
      "stateMutability": "view",
      "type": "function"
    },
    {
      "inputs": [
        {
          "internalType": "string",
          "name": "tokenName",
          "type": "string"
        }
      ],
      "name": "getName",
      "outputs": [
        {
          "internalType": "string",
          "name": "",
          "type": "string"
        }
      ],
      "stateMutability": "view",
      "type": "function"
    },
    {
      "inputs": [
        {
          "internalType": "string",
          "name": "tokenName",
          "type": "string"
        }
      ],
      "name": "getTokenAddress",
      "outputs": [
        {
          "internalType": "address",
          "name": "",
          "type": "address"
        }
      ],
      "stateMutability": "view",
      "type": "function"
    },
    {
      "inputs": [
        {
          "internalType": "string",
          "name": "tokenName",
          "type": "string"
        }
      ],
      "name": "swapEthToToken",
      "outputs": [
        {
          "internalType": "uint256",
          "name": "",
          "type": "uint256"
        }
      ],
      "stateMutability": "payable",
      "type": "function"
    },
    {
      "inputs": [
        {
          "internalType": "string",
          "name": "tokenName",
          "type": "string"
        },
        {
          "internalType": "uint256",
          "name": "_amount",
          "type": "uint256"
        }
      ],
      "name": "swapTokenToEth",
      "outputs": [
        {
          "internalType": "uint256",
          "name": "",
          "type": "uint256"
        }
      ],
      "stateMutability": "nonpayable",
      "type": "function"
    },
    {
      "inputs": [
        {
          "internalType": "string",
          "name": "srcTokenName",
          "type": "string"
        },
        {
          "internalType": "string",
          "name": "destTokenName",
          "type": "string"
        },
        {
          "internalType": "uint256",
          "name": "_amount",
          "type": "uint256"
        }
      ],
      "name": "swapTokenToToken",
      "outputs": [],
      "stateMutability": "nonpayable",
      "type": "function"
    },
    {
      "inputs": [
        {
          "internalType": "string",
          "name": "",
          "type": "string"
        }
      ],
      "name": "tokenInstanceMap",
      "outputs": [
        {
          "internalType": "contract ERC20",
          "name": "",
          "type": "address"
        }
      ],
      "stateMutability": "view",
      "type": "function"
    },
    {
      "inputs": [
        {
          "internalType": "uint256",
          "name": "",
          "type": "uint256"
        }
      ],
      "name": "tokens",
      "outputs": [
        {
          "internalType": "string",
          "name": "",
          "type": "string"
        }
      ],
      "stateMutability": "view",
      "type": "function"
    }
  ],
  "bytecode": "0x608060405260405180606001604052806040518060400160405280600581526020017f436f696e4100000000000000000000000000000000000000000000000000000081525081526020016040518060400160405280600581526020017f436f696e4200000000000000000000000000000000000000000000000000000081525081526020016040518060400160405280600581526020017f436f696e430000000000000000000000000000000000000000000000000000008152508152506000906003620000d092919062000215565b50655af3107a4000600255348015620000e857600080fd5b5060005b6000805490508110156200020e57600080828154811062000112576200011162000310565b5b906000526020600020016000838154811062000133576200013262000310565b5b906000526020600020016040516200014b9062000275565b6200015892919062000459565b604051809103906000f08015801562000175573d6000803e3d6000fd5b5090508060016000848154811062000192576200019162000310565b5b90600052602060002001604051620001ab91906200052e565b908152602001604051809103902060006101000a81548173ffffffffffffffffffffffffffffffffffffffff021916908373ffffffffffffffffffffffffffffffffffffffff160217905550508080620002059062000580565b915050620000ec565b50620008ab565b82805482825590600052602060002090810192821562000262579160200282015b8281111562000261578251829081620002509190620007c4565b509160200191906001019062000236565b5b50905062000271919062000283565b5090565b611a9e8062001aca83390190565b5b80821115620002a757600081816200029d9190620002ab565b5060010162000284565b5090565b508054620002b9906200036e565b6000825580601f10620002cd5750620002ee565b601f016020900490600052602060002090810190620002ed9190620002f1565b5b50565b5b808211156200030c576000816000905550600101620002f2565b5090565b7f4e487b7100000000000000000000000000000000000000000000000000000000600052603260045260246000fd5b7f4e487b7100000000000000000000000000000000000000000000000000000000600052602260045260246000fd5b600060028204905060018216806200038757607f821691505b6020821081036200039d576200039c6200033f565b5b50919050565b600082825260208201905092915050565b60008190508160005260206000209050919050565b60008154620003d8816200036e565b620003e48186620003a3565b94506001821660008114620004025760018114620004195762000450565b60ff19831686528115156020028601935062000450565b6200042485620003b4565b60005b83811015620004485781548189015260018201915060208101905062000427565b808801955050505b50505092915050565b60006040820190508181036000830152620004758185620003c9565b905081810360208301526200048b8184620003c9565b90509392505050565b600081905092915050565b60008154620004ae816200036e565b620004ba818662000494565b94506001821660008114620004d85760018114620004ee5762000525565b60ff198316865281151582028601935062000525565b620004f985620003b4565b60005b838110156200051d57815481890152600182019150602081019050620004fc565b838801955050505b50505092915050565b60006200053c82846200049f565b915081905092915050565b7f4e487b7100000000000000000000000000000000000000000000000000000000600052601160045260246000fd5b6000819050919050565b60006200058d8262000576565b91507fffffffffffffffffffffffffffffffffffffffffffffffffffffffffffffffff8203620005c257620005c162000547565b5b600182019050919050565b600081519050919050565b7f4e487b7100000000000000000000000000000000000000000000000000000000600052604160045260246000fd5b60006020601f8301049050919050565b600082821b905092915050565b600060088302620006567fffffffffffffffffffffffffffffffffffffffffffffffffffffffffffffffff8262000617565b62000662868362000617565b95508019841693508086168417925050509392505050565b6000819050919050565b6000620006a56200069f620006998462000576565b6200067a565b62000576565b9050919050565b6000819050919050565b620006c18362000684565b620006d9620006d082620006ac565b84845462000624565b825550505050565b600090565b620006f0620006e1565b620006fd818484620006b6565b505050565b5b81811015620007255762000719600082620006e6565b60018101905062000703565b5050565b601f82111562000774576200073e81620003b4565b620007498462000607565b8101602085101562000759578190505b62000771620007688562000607565b83018262000702565b50505b505050565b600082821c905092915050565b6000620007996000198460080262000779565b1980831691505092915050565b6000620007b4838362000786565b9150826002028217905092915050565b620007cf82620005cd565b67ffffffffffffffff811115620007eb57620007ea620005d8565b5b620007f782546200036e565b6200080482828562000729565b600060209050601f8311600181146200083c576000841562000827578287015190505b620008338582620007a6565b865550620008a3565b601f1984166200084c86620003b4565b60005b8281101562000876578489015182556001820191506020850194506020810190506200084f565b8683101562000896578489015162000892601f89168262000786565b8355505b6001600288020188555050505b505050505050565b61120f80620008bb6000396000f3fe60806040526004361061007b5760003560e01c8063a93325ed1161004e578063a93325ed14610167578063bf015aae146101a4578063c4091236146101cd578063db6f63ee1461020a5761007b565b80634f64b2be1461008057806363fcf7c5146100bd5780636932cf81146100ed57806389f4b3171461012a575b600080fd5b34801561008c57600080fd5b506100a760048036038101906100a2919061095d565b610247565b6040516100b49190610a1a565b60405180910390f35b6100d760048036038101906100d29190610b71565b6102f3565b6040516100e49190610bc9565b60405180910390f35b3480156100f957600080fd5b50610114600480360381019061010f9190610b71565b6103ed565b6040516101219190610a1a565b60405180910390f35b34801561013657600080fd5b50610151600480360381019061014c9190610c42565b6104a8565b60405161015e9190610bc9565b60405180910390f35b34801561017357600080fd5b5061018e60048036038101906101899190610b71565b61056a565b60405161019b9190610cfd565b60405180910390f35b3480156101b057600080fd5b506101cb60048036038101906101c69190610d18565b6105b3565b005b3480156101d957600080fd5b506101f460048036038101906101ef9190610b71565b610744565b6040516102019190610db2565b60405180910390f35b34801561021657600080fd5b50610231600480360381019061022c9190610dcd565b61078c565b60405161023e9190610bc9565b60405180910390f35b6000818154811061025757600080fd5b90600052602060002001600091509050805461027290610e58565b80601f016020809104026020016040519081016040528092919081815260200182805461029e90610e58565b80156102eb5780601f106102c0576101008083540402835291602001916102eb565b820191906000526020600020905b8154815290600101906020018083116102ce57829003601f168201915b505050505081565b6000803490506000670de0b6b3a7640000600254836103129190610ee7565b61031c9190610f18565b905060018460405161032e9190610f96565b908152602001604051809103902060009054906101000a900473ffffffffffffffffffffffffffffffffffffffff1673ffffffffffffffffffffffffffffffffffffffff1663a9059cbb33836040518363ffffffff1660e01b8152600401610397929190610fad565b6020604051808303816000875af11580156103b6573d6000803e3d6000fd5b505050506040513d601f19601f820116820180604052508101906103da919061100e565b6103e357600080fd5b8092505050919050565b60606001826040516103ff9190610f96565b908152602001604051809103902060009054906101000a900473ffffffffffffffffffffffffffffffffffffffff1673ffffffffffffffffffffffffffffffffffffffff166306fdde036040518163ffffffff1660e01b8152600401600060405180830381865afa158015610478573d6000803e3d6000fd5b505050506040513d6000823e3d601f19601f820116820180604052508101906104a191906110ab565b9050919050565b60006001836040516104ba9190610f96565b908152602001604051809103902060009054906101000a900473ffffffffffffffffffffffffffffffffffffffff1673ffffffffffffffffffffffffffffffffffffffff166370a08231836040518263ffffffff1660e01b81526004016105219190610db2565b602060405180830381865afa15801561053e573d6000803e3d6000fd5b505050506040513d601f19601f820116820180604052508101906105629190611109565b905092915050565b6001818051602081018201805184825260208301602085012081835280955050505050506000915054906101000a900473ffffffffffffffffffffffffffffffffffffffff1681565b6001836040516105c39190610f96565b908152602001604051809103902060009054906101000a900473ffffffffffffffffffffffffffffffffffffffff1673ffffffffffffffffffffffffffffffffffffffff166323b872dd3330846040518463ffffffff1660e01b815260040161062e93929190611136565b6020604051808303816000875af115801561064d573d6000803e3d6000fd5b505050506040513d601f19601f82011682018060405250810190610671919061100e565b61067a57600080fd5b60018260405161068a9190610f96565b908152602001604051809103902060009054906101000a900473ffffffffffffffffffffffffffffffffffffffff1673ffffffffffffffffffffffffffffffffffffffff1663a9059cbb33836040518363ffffffff1660e01b81526004016106f3929190610fad565b6020604051808303816000875af1158015610712573d6000803e3d6000fd5b505050506040513d601f19601f82011682018060405250810190610736919061100e565b61073f57600080fd5b505050565b60006001826040516107569190610f96565b908152602001604051809103902060009054906101000a900473ffffffffffffffffffffffffffffffffffffffff169050919050565b600080670de0b6b3a7640000836107a39190610ee7565b90506000600254826107b59190610f18565b9050804710156107fa576040517f08c379a00000000000000000000000000000000000000000000000000000000081526004016107f1906111b9565b60405180910390fd5b3373ffffffffffffffffffffffffffffffffffffffff166108fc829081150290604051600060405180830381858888f19350505050158015610840573d6000803e3d6000fd5b506001856040516108519190610f96565b908152602001604051809103902060009054906101000a900473ffffffffffffffffffffffffffffffffffffffff1673ffffffffffffffffffffffffffffffffffffffff166323b872dd3330876040518463ffffffff1660e01b81526004016108bc93929190611136565b6020604051808303816000875af11580156108db573d6000803e3d6000fd5b505050506040513d601f19601f820116820180604052508101906108ff919061100e565b61090857600080fd5b809250505092915050565b6000604051905090565b600080fd5b600080fd5b6000819050919050565b61093a81610927565b811461094557600080fd5b50565b60008135905061095781610931565b92915050565b6000602082840312156109735761097261091d565b5b600061098184828501610948565b91505092915050565b600081519050919050565b600082825260208201905092915050565b60005b838110156109c45780820151818401526020810190506109a9565b60008484015250505050565b6000601f19601f8301169050919050565b60006109ec8261098a565b6109f68185610995565b9350610a068185602086016109a6565b610a0f816109d0565b840191505092915050565b60006020820190508181036000830152610a3481846109e1565b905092915050565b600080fd5b600080fd5b7f4e487b7100000000000000000000000000000000000000000000000000000000600052604160045260246000fd5b610a7e826109d0565b810181811067ffffffffffffffff82111715610a9d57610a9c610a46565b5b80604052505050565b6000610ab0610913565b9050610abc8282610a75565b919050565b600067ffffffffffffffff821115610adc57610adb610a46565b5b610ae5826109d0565b9050602081019050919050565b82818337600083830152505050565b6000610b14610b0f84610ac1565b610aa6565b905082815260208101848484011115610b3057610b2f610a41565b5b610b3b848285610af2565b509392505050565b600082601f830112610b5857610b57610a3c565b5b8135610b68848260208601610b01565b91505092915050565b600060208284031215610b8757610b8661091d565b5b600082013567ffffffffffffffff811115610ba557610ba4610922565b5b610bb184828501610b43565b91505092915050565b610bc381610927565b82525050565b6000602082019050610bde6000830184610bba565b92915050565b600073ffffffffffffffffffffffffffffffffffffffff82169050919050565b6000610c0f82610be4565b9050919050565b610c1f81610c04565b8114610c2a57600080fd5b50565b600081359050610c3c81610c16565b92915050565b60008060408385031215610c5957610c5861091d565b5b600083013567ffffffffffffffff811115610c7757610c76610922565b5b610c8385828601610b43565b9250506020610c9485828601610c2d565b9150509250929050565b6000819050919050565b6000610cc3610cbe610cb984610be4565b610c9e565b610be4565b9050919050565b6000610cd582610ca8565b9050919050565b6000610ce782610cca565b9050919050565b610cf781610cdc565b82525050565b6000602082019050610d126000830184610cee565b92915050565b600080600060608486031215610d3157610d3061091d565b5b600084013567ffffffffffffffff811115610d4f57610d4e610922565b5b610d5b86828701610b43565b935050602084013567ffffffffffffffff811115610d7c57610d7b610922565b5b610d8886828701610b43565b9250506040610d9986828701610948565b9150509250925092565b610dac81610c04565b82525050565b6000602082019050610dc76000830184610da3565b92915050565b60008060408385031215610de457610de361091d565b5b600083013567ffffffffffffffff811115610e0257610e01610922565b5b610e0e85828601610b43565b9250506020610e1f85828601610948565b9150509250929050565b7f4e487b7100000000000000000000000000000000000000000000000000000000600052602260045260246000fd5b60006002820490506001821680610e7057607f821691505b602082108103610e8357610e82610e29565b5b50919050565b7f4e487b7100000000000000000000000000000000000000000000000000000000600052601260045260246000fd5b7f4e487b7100000000000000000000000000000000000000000000000000000000600052601160045260246000fd5b6000610ef282610927565b9150610efd83610927565b925082610f0d57610f0c610e89565b5b828204905092915050565b6000610f2382610927565b9150610f2e83610927565b9250828202610f3c81610927565b91508282048414831517610f5357610f52610eb8565b5b5092915050565b600081905092915050565b6000610f708261098a565b610f7a8185610f5a565b9350610f8a8185602086016109a6565b80840191505092915050565b6000610fa28284610f65565b915081905092915050565b6000604082019050610fc26000830185610da3565b610fcf6020830184610bba565b9392505050565b60008115159050919050565b610feb81610fd6565b8114610ff657600080fd5b50565b60008151905061100881610fe2565b92915050565b6000602082840312156110245761102361091d565b5b600061103284828501610ff9565b91505092915050565b600061104e61104984610ac1565b610aa6565b90508281526020810184848401111561106a57611069610a41565b5b6110758482856109a6565b509392505050565b600082601f83011261109257611091610a3c565b5b81516110a284826020860161103b565b91505092915050565b6000602082840312156110c1576110c061091d565b5b600082015167ffffffffffffffff8111156110df576110de610922565b5b6110eb8482850161107d565b91505092915050565b60008151905061110381610931565b92915050565b60006020828403121561111f5761111e61091d565b5b600061112d848285016110f4565b91505092915050565b600060608201905061114b6000830186610da3565b6111586020830185610da3565b6111656040830184610bba565b949350505050565b7f4465782069732072756e6e696e67206c6f77206f6e2062616c616e63652e0000600082015250565b60006111a3601e83610995565b91506111ae8261116d565b602082019050919050565b600060208201905081810360008301526111d281611196565b905091905056fea26469706673582212205df9904f727b1814da129f99c5b2ccc6b08e6dee14db6394467b4fff84ed99ce64736f6c6343000812003360806040523480156200001157600080fd5b5060405162001a9e38038062001a9e83398181016040528101906200003791906200038d565b818181600390816200004a91906200065d565b5080600490816200005c91906200065d565b5050506200007b3369152d02c7e14af68000006200008360201b60201c565b50506200085f565b600073ffffffffffffffffffffffffffffffffffffffff168273ffffffffffffffffffffffffffffffffffffffff1603620000f5576040517f08c379a0000000000000000000000000000000000000000000000000000000008152600401620000ec90620007a5565b60405180910390fd5b6200010960008383620001f060201b60201c565b80600260008282546200011d9190620007f6565b92505081905550806000808473ffffffffffffffffffffffffffffffffffffffff1673ffffffffffffffffffffffffffffffffffffffff168152602001908152602001600020600082825401925050819055508173ffffffffffffffffffffffffffffffffffffffff16600073ffffffffffffffffffffffffffffffffffffffff167fddf252ad1be2c89b69c2b068fc378daa952ba7f163c4a11628f55a4df523b3ef83604051620001d0919062000842565b60405180910390a3620001ec60008383620001f560201b60201c565b5050565b505050565b505050565b6000604051905090565b600080fd5b600080fd5b600080fd5b600080fd5b6000601f19601f8301169050919050565b7f4e487b7100000000000000000000000000000000000000000000000000000000600052604160045260246000fd5b620002638262000218565b810181811067ffffffffffffffff8211171562000285576200028462000229565b5b80604052505050565b60006200029a620001fa565b9050620002a8828262000258565b919050565b600067ffffffffffffffff821115620002cb57620002ca62000229565b5b620002d68262000218565b9050602081019050919050565b60005b8381101562000303578082015181840152602081019050620002e6565b60008484015250505050565b6000620003266200032084620002ad565b6200028e565b90508281526020810184848401111562000345576200034462000213565b5b62000352848285620002e3565b509392505050565b600082601f8301126200037257620003716200020e565b5b8151620003848482602086016200030f565b91505092915050565b60008060408385031215620003a757620003a662000204565b5b600083015167ffffffffffffffff811115620003c857620003c762000209565b5b620003d6858286016200035a565b925050602083015167ffffffffffffffff811115620003fa57620003f962000209565b5b62000408858286016200035a565b9150509250929050565b600081519050919050565b7f4e487b7100000000000000000000000000000000000000000000000000000000600052602260045260246000fd5b600060028204905060018216806200046557607f821691505b6020821081036200047b576200047a6200041d565b5b50919050565b60008190508160005260206000209050919050565b60006020601f8301049050919050565b600082821b905092915050565b600060088302620004e57fffffffffffffffffffffffffffffffffffffffffffffffffffffffffffffffff82620004a6565b620004f18683620004a6565b95508019841693508086168417925050509392505050565b6000819050919050565b6000819050919050565b60006200053e62000538620005328462000509565b62000513565b62000509565b9050919050565b6000819050919050565b6200055a836200051d565b62000572620005698262000545565b848454620004b3565b825550505050565b600090565b620005896200057a565b620005968184846200054f565b505050565b5b81811015620005be57620005b26000826200057f565b6001810190506200059c565b5050565b601f8211156200060d57620005d78162000481565b620005e28462000496565b81016020851015620005f2578190505b6200060a620006018562000496565b8301826200059b565b50505b505050565b600082821c905092915050565b6000620006326000198460080262000612565b1980831691505092915050565b60006200064d83836200061f565b9150826002028217905092915050565b620006688262000412565b67ffffffffffffffff81111562000684576200068362000229565b5b6200069082546200044c565b6200069d828285620005c2565b600060209050601f831160018114620006d55760008415620006c0578287015190505b620006cc85826200063f565b8655506200073c565b601f198416620006e58662000481565b60005b828110156200070f57848901518255600182019150602085019450602081019050620006e8565b868310156200072f57848901516200072b601f8916826200061f565b8355505b6001600288020188555050505b505050505050565b600082825260208201905092915050565b7f45524332303a206d696e7420746f20746865207a65726f206164647265737300600082015250565b60006200078d601f8362000744565b91506200079a8262000755565b602082019050919050565b60006020820190508181036000830152620007c0816200077e565b9050919050565b7f4e487b7100000000000000000000000000000000000000000000000000000000600052601160045260246000fd5b6000620008038262000509565b9150620008108362000509565b92508282019050808211156200082b576200082a620007c7565b5b92915050565b6200083c8162000509565b82525050565b600060208201905062000859600083018462000831565b92915050565b61122f806200086f6000396000f3fe608060405234801561001057600080fd5b50600436106100a95760003560e01c80633950935111610071578063395093511461016857806370a082311461019857806395d89b41146101c8578063a457c2d7146101e6578063a9059cbb14610216578063dd62ed3e14610246576100a9565b806306fdde03146100ae578063095ea7b3146100cc57806318160ddd146100fc57806323b872dd1461011a578063313ce5671461014a575b600080fd5b6100b6610276565b6040516100c39190610b0c565b60405180910390f35b6100e660048036038101906100e19190610bc7565b610308565b6040516100f39190610c22565b60405180910390f35b61010461032b565b6040516101119190610c4c565b60405180910390f35b610134600480360381019061012f9190610c67565b610335565b6040516101419190610c22565b60405180910390f35b610152610364565b60405161015f9190610cd6565b60405180910390f35b610182600480360381019061017d9190610bc7565b61036d565b60405161018f9190610c22565b60405180910390f35b6101b260048036038101906101ad9190610cf1565b6103a4565b6040516101bf9190610c4c565b60405180910390f35b6101d06103ec565b6040516101dd9190610b0c565b60405180910390f35b61020060048036038101906101fb9190610bc7565b61047e565b60405161020d9190610c22565b60405180910390f35b610230600480360381019061022b9190610bc7565b6104f5565b60405161023d9190610c22565b60405180910390f35b610260600480360381019061025b9190610d1e565b610518565b60405161026d9190610c4c565b60405180910390f35b60606003805461028590610d8d565b80601f01602080910402602001604051908101604052809291908181526020018280546102b190610d8d565b80156102fe5780601f106102d3576101008083540402835291602001916102fe565b820191906000526020600020905b8154815290600101906020018083116102e157829003601f168201915b5050505050905090565b60008061031361059f565b90506103208185856105a7565b600191505092915050565b6000600254905090565b60008061034061059f565b905061034d858285610770565b6103588585856107fc565b60019150509392505050565b60006012905090565b60008061037861059f565b905061039981858561038a8589610518565b6103949190610ded565b6105a7565b600191505092915050565b60008060008373ffffffffffffffffffffffffffffffffffffffff1673ffffffffffffffffffffffffffffffffffffffff168152602001908152602001600020549050919050565b6060600480546103fb90610d8d565b80601f016020809104026020016040519081016040528092919081815260200182805461042790610d8d565b80156104745780601f1061044957610100808354040283529160200191610474565b820191906000526020600020905b81548152906001019060200180831161045757829003601f168201915b5050505050905090565b60008061048961059f565b905060006104978286610518565b9050838110156104dc576040517f08c379a00000000000000000000000000000000000000000000000000000000081526004016104d390610e93565b60405180910390fd5b6104e982868684036105a7565b60019250505092915050565b60008061050061059f565b905061050d8185856107fc565b600191505092915050565b6000600160008473ffffffffffffffffffffffffffffffffffffffff1673ffffffffffffffffffffffffffffffffffffffff16815260200190815260200160002060008373ffffffffffffffffffffffffffffffffffffffff1673ffffffffffffffffffffffffffffffffffffffff16815260200190815260200160002054905092915050565b600033905090565b600073ffffffffffffffffffffffffffffffffffffffff168373ffffffffffffffffffffffffffffffffffffffff1603610616576040517f08c379a000000000000000000000000000000000000000000000000000000000815260040161060d90610f25565b60405180910390fd5b600073ffffffffffffffffffffffffffffffffffffffff168273ffffffffffffffffffffffffffffffffffffffff1603610685576040517f08c379a000000000000000000000000000000000000000000000000000000000815260040161067c90610fb7565b60405180910390fd5b80600160008573ffffffffffffffffffffffffffffffffffffffff1673ffffffffffffffffffffffffffffffffffffffff16815260200190815260200160002060008473ffffffffffffffffffffffffffffffffffffffff1673ffffffffffffffffffffffffffffffffffffffff168152602001908152602001600020819055508173ffffffffffffffffffffffffffffffffffffffff168373ffffffffffffffffffffffffffffffffffffffff167f8c5be1e5ebec7d5bd14f71427d1e84f3dd0314c0f7b2291e5b200ac8c7c3b925836040516107639190610c4c565b60405180910390a3505050565b600061077c8484610518565b90507fffffffffffffffffffffffffffffffffffffffffffffffffffffffffffffffff81146107f657818110156107e8576040517f08c379a00000000000000000000000000000000000000000000000000000000081526004016107df90611023565b60405180910390fd5b6107f584848484036105a7565b5b50505050565b600073ffffffffffffffffffffffffffffffffffffffff168373ffffffffffffffffffffffffffffffffffffffff160361086b576040517f08c379a0000000000000000000000000000000000000000000000000000000008152600401610862906110b5565b60405180910390fd5b600073ffffffffffffffffffffffffffffffffffffffff168273ffffffffffffffffffffffffffffffffffffffff16036108da576040517f08c379a00000000000000000000000000000000000000000000000000000000081526004016108d190611147565b60405180910390fd5b6108e5838383610a72565b60008060008573ffffffffffffffffffffffffffffffffffffffff1673ffffffffffffffffffffffffffffffffffffffff1681526020019081526020016000205490508181101561096b576040517f08c379a0000000000000000000000000000000000000000000000000000000008152600401610962906111d9565b60405180910390fd5b8181036000808673ffffffffffffffffffffffffffffffffffffffff1673ffffffffffffffffffffffffffffffffffffffff16815260200190815260200160002081905550816000808573ffffffffffffffffffffffffffffffffffffffff1673ffffffffffffffffffffffffffffffffffffffff168152602001908152602001600020600082825401925050819055508273ffffffffffffffffffffffffffffffffffffffff168473ffffffffffffffffffffffffffffffffffffffff167fddf252ad1be2c89b69c2b068fc378daa952ba7f163c4a11628f55a4df523b3ef84604051610a599190610c4c565b60405180910390a3610a6c848484610a77565b50505050565b505050565b505050565b600081519050919050565b600082825260208201905092915050565b60005b83811015610ab6578082015181840152602081019050610a9b565b60008484015250505050565b6000601f19601f8301169050919050565b6000610ade82610a7c565b610ae88185610a87565b9350610af8818560208601610a98565b610b0181610ac2565b840191505092915050565b60006020820190508181036000830152610b268184610ad3565b905092915050565b600080fd5b600073ffffffffffffffffffffffffffffffffffffffff82169050919050565b6000610b5e82610b33565b9050919050565b610b6e81610b53565b8114610b7957600080fd5b50565b600081359050610b8b81610b65565b92915050565b6000819050919050565b610ba481610b91565b8114610baf57600080fd5b50565b600081359050610bc181610b9b565b92915050565b60008060408385031215610bde57610bdd610b2e565b5b6000610bec85828601610b7c565b9250506020610bfd85828601610bb2565b9150509250929050565b60008115159050919050565b610c1c81610c07565b82525050565b6000602082019050610c376000830184610c13565b92915050565b610c4681610b91565b82525050565b6000602082019050610c616000830184610c3d565b92915050565b600080600060608486031215610c8057610c7f610b2e565b5b6000610c8e86828701610b7c565b9350506020610c9f86828701610b7c565b9250506040610cb086828701610bb2565b9150509250925092565b600060ff82169050919050565b610cd081610cba565b82525050565b6000602082019050610ceb6000830184610cc7565b92915050565b600060208284031215610d0757610d06610b2e565b5b6000610d1584828501610b7c565b91505092915050565b60008060408385031215610d3557610d34610b2e565b5b6000610d4385828601610b7c565b9250506020610d5485828601610b7c565b9150509250929050565b7f4e487b7100000000000000000000000000000000000000000000000000000000600052602260045260246000fd5b60006002820490506001821680610da557607f821691505b602082108103610db857610db7610d5e565b5b50919050565b7f4e487b7100000000000000000000000000000000000000000000000000000000600052601160045260246000fd5b6000610df882610b91565b9150610e0383610b91565b9250828201905080821115610e1b57610e1a610dbe565b5b92915050565b7f45524332303a2064656372656173656420616c6c6f77616e63652062656c6f7760008201527f207a65726f000000000000000000000000000000000000000000000000000000602082015250565b6000610e7d602583610a87565b9150610e8882610e21565b604082019050919050565b60006020820190508181036000830152610eac81610e70565b9050919050565b7f45524332303a20617070726f76652066726f6d20746865207a65726f2061646460008201527f7265737300000000000000000000000000000000000000000000000000000000602082015250565b6000610f0f602483610a87565b9150610f1a82610eb3565b604082019050919050565b60006020820190508181036000830152610f3e81610f02565b9050919050565b7f45524332303a20617070726f766520746f20746865207a65726f20616464726560008201527f7373000000000000000000000000000000000000000000000000000000000000602082015250565b6000610fa1602283610a87565b9150610fac82610f45565b604082019050919050565b60006020820190508181036000830152610fd081610f94565b9050919050565b7f45524332303a20696e73756666696369656e7420616c6c6f77616e6365000000600082015250565b600061100d601d83610a87565b915061101882610fd7565b602082019050919050565b6000602082019050818103600083015261103c81611000565b9050919050565b7f45524332303a207472616e736665722066726f6d20746865207a65726f20616460008201527f6472657373000000000000000000000000000000000000000000000000000000602082015250565b600061109f602583610a87565b91506110aa82611043565b604082019050919050565b600060208201905081810360008301526110ce81611092565b9050919050565b7f45524332303a207472616e7366657220746f20746865207a65726f206164647260008201527f6573730000000000000000000000000000000000000000000000000000000000602082015250565b6000611131602383610a87565b915061113c826110d5565b604082019050919050565b6000602082019050818103600083015261116081611124565b9050919050565b7f45524332303a207472616e7366657220616d6f756e742065786365656473206260008201527f616c616e63650000000000000000000000000000000000000000000000000000602082015250565b60006111c3602683610a87565b91506111ce82611167565b604082019050919050565b600060208201905081810360008301526111f2816111b6565b905091905056fea26469706673582212200abdd644a52d64c696b32299a3318d427dcf61b06b781dd8efe09c8437eced3764736f6c63430008120033",
  "linkReferences": {},
  "deployedLinkReferences": {}
}